:020000040800F2
:100000005807002089010008771300087B120008B8
:10001000751300088F0200081D150008000000007D
:100020000000000000000000000000007B1300083A
:100030009102000800000000791300087D130008F9
:10004000A3010008A3010008A3010008A301000800
:10005000A3010008A3010008A3010008A3010008F0
:10006000A3010008A3010008A3010008A3010008E0
:10007000A3010008A3010008A3010008A3010008D0
:10008000A3010008A3010008A3010008A3010008C0
:1000900011150008A3010008A3010008A30100082E
:1000A000A3010008A3010008A3010008A3010008A0
:1000B000A3010008A3010008A3010008A301000890
:1000C000A3010008A3010008A3010008A301000880
:1000D000A3010008A3010008A3010008A301000870
:1000E000A3010008A3010008A301000800F002F822
:1000F00000F03AF80AA090E8000C82448344AAF188
:100100000107DA4501D100F02FF8AFF2090EBAE885
:100110000F0013F0010F18BFFB1A43F0010318473B
:10012000D0150000F0150000103A24BF78C878C13F
:10013000FAD8520724BF30C830C144BF04680C60ED
:10014000704700000023002400250026103A28BF35
:1001500078C1FBD8520728BF30C148BF0B60704739
:100160001FB51FBD10B510BD00F058F81146FFF7C0
:10017000F7FF01F0E5F900F076F803B4FFF7F2FFBE
:1001800003BC00F07DF8000009488047094800479B
:10019000FEE7FEE7FEE7FEE7FEE7FEE7FEE7FEE737
:1001A000FEE7FEE704480549054A064B7047000094
:1001B000DF130008ED000008580100205807002058
:1001C00058030020580300204FF0000200B51346EA
:1001D00094469646203922BFA0E80C50A0E80C5067
:1001E000B1F12001BFF4F7AF090728BFA0E80C5018
:1001F00048BF0CC05DF804EB890028BF40F8042B11
:1002000008BF704748BF20F8022B11F0804F18BF7D
:1002100000F8012B7047704770477047754600F033
:100220002BF8AE4605006946534620F00700854688
:1002300018B020B5FFF7B6FFBDE820404FF000062C
:100240004FF000074FF000084FF0000B21F00701BE
:10025000AC46ACE8C009ACE8C009ACE8C009ACE801
:10026000C0098D46704710B50446AFF300802046A4
:10027000BDE81040FFF781BF00487047F400002040
:1002800001491820ABBEFEE7260002007047FEE7DA
:10029000704790F82020012A07D0022A05D0416A31
:1002A00041F48021416201207047006842690A439D
:1002B000426100207047000010B590F820300268BD
:1002C000012B07D0022B05D0416A41F48021416205
:1002D000012010BDD2F8000240F00100C2F8000277
:1002E000087D00F01F0301209840D2F81C328343A0
:1002F000C2F81C32CB69B3B9D2F80C328343C2F8CE
:100300000C328C894B6864F31F434C6902EBC404C4
:10031000C4F840320C890B6864F31F434C6902EB4C
:10032000C404C4F84432CB69012B16D1D2F80C3284
:100330000343C2F80C320C884B6864F31F434C69CA
:1003400002EBC404C4F840320C89CB6864F31F4349
:100350004C6902EBC404C4F844328B69002BD2F818
:1003600004320FD053EA0003C2F804320B69002BA9
:10037000D2F8143208D00343C2F81432096A0129B2
:1003800004D008E08343EFE78343F5E7D2F81C127B
:100390000143C2F81C12D2F8000220F00100C2F89A
:1003A0000002002010BD704770B590F82040012C6D
:1003B00005D0022C03D0416A41F4802128E0046872
:1003C00009B32469A40720D04FF4D874056804EB5E
:1003D00001142D5915F00405956005682D591AD0A2
:1003E000ED08556005682C5904F00204D4604FF400
:1003F000DA74056804EB01142E5906F00F06082E76
:100400000CD308250DE0E468DCE7416A41F40011F3
:100410004162012070BD6D0D1560E3E72D5905F0B7
:100420000F05156105682D59C5F307259561056808
:100430002C59240C54614FF4DC72046802EB011255
:10044000A4581C700468A458240A5C700468A4585A
:10045000240C9C700468A258120EDA704FF4DE72FD
:10046000046802EB0112A4581C710468A458240A01
:100470005C710468A458240C9C710468A258120E84
:10048000DA71006829B1016941F0200101610020A1
:1004900070BDC16841F02001C160F8E72DE9F05F4F
:1004A0000546006800244669D0F804908768D0F8B3
:1004B0000CB0D0F810A0D0F81880F10748D0F90798
:1004C00014D001218160B80703D5284600F0F7F960
:1004D0000CE0780702D54FF4006407E0380702D536
:1004E0004FF4805402E0284600F0E8F9F80516D5EC
:1004F00029684FF480708860B80503D5284600F05D
:10050000E0F90CE0780502D544F4005407E0380522
:1005100002D544F4804402E0284600F0D1F9F80303
:1005200016D529684FF480308860B80303D5284673
:1005300000F0C9F90CE0780302D544F4004407E068
:10054000380302D544F4803402E0284600F0BAF9BA
:10055000300707D55FEACB6004D52968102044F442
:100560000074C86070074FF0080707D55FEA0B708A
:1005700004D52868C760284600F05AF9B00706D5A8
:100580002868C068800702D0284600F053F970063A
:1005900007D55FEACA6004D52968102044F4806456
:1005A0000861B00607D55FEA0A7004D528680761BC
:1005B000284600F053F9F00606D528680069800740
:1005C00002D0284600F04BF9B00308D55FEAC960B5
:1005D00005D5296810204860284600F041F9F0034D
:1005E00007D55FEA097004D528684760284600F0FF
:1005F0006BF9300446D55FEA497040D5F00504D563
:100600005FEAC87001D044F00104B00504D55FEA88
:10061000887001D544F00204700504D55FEA487083
:1006200001D544F00404300529D518F0700F26D008
:1006300008F07000402815D006DC102809D02028CA
:100640000AD0302816D10AE050280ED0602811D1E7
:100650000EE044F008040DE044F010040AE044F019
:10066000200407E044F0400404E044F0800401E08A
:1006700044F480742868816921F0700181612968DF
:1006800004204860002C05D0686A20436862284630
:10069000FFF789FEBDE8F09F70B5040003D094F821
:1006A000200010B104E0012070BD204600F082F867
:1006B0002068016841F00101016000F009FA054677
:1006C000052604E000F004FA401B0A2811D820682F
:1006D0004068C007F6D02068016821F0020101607F
:1006E00000F0F6F905460BE000F0F2F9401B0A288D
:1006F00006D9606A40F40030606284F82060D2E776
:10070000206840688007EFD4207E012820680168B7
:100710003DD021F080010160607E012820680168E1
:1007200038D021F040010160A07E012820680168D6
:1007300033D021F020010160E07E012820680168AB
:100740002ED041F010010160207F0128206801684F
:1007500029D021F008010160607F0128206801682C
:1007600024D021F004010160D4E902010843D4E956
:100770000412114308436168491E08432168C86197
:1007800000206062012084F82000002070BD41F04C
:100790008001C0E741F04001C5E741F02001CAE710
:1007A00021F01001CFE741F00801D4E741F0040146
:1007B000D9E7000010B586B00021009101910291A7
:1007C00003910068174988422AD11748C16941F04E
:1007D0000071C161C16901F000710491816941F04A
:1007E000040181618069114C00F0040004904FF411
:1007F000006000906946204600F07AF8A01400904E
:1008000002200190032003906946204600F070F812
:1008100000221146142000F0C7F9142000F0B6F9A8
:1008200006B010BD00640040001002400008014006
:10083000704700001CB500680649884209D101A82C
:1008400000F052FD0090012304226946024800F0A6
:10085000C7FC1CBD0064004050000020704770477A
:100860007047000070B5044690F82000012804D0BD
:10087000606A40F40020606218E0022084F82000E2
:100880002068016821F00101016000F021F90546AE
:100890000EE000BF00F01CF9401B0A2808D9606A6E
:1008A00040F400306062052084F82000012070BD13
:1008B00020684068C007EDD1606270BD7047704726
:1008C00070477047704770477047000070B5044626
:1008D00000F0FEF80546601C02D00448007804448D
:1008E00000F0F6F8401BA042FAD370BD18000020BB
:1008F0002DE9F84FDFF8B8910024A9F1040B234645
:100900000F2709F1040AABF1040EC9E00125A54047
:100910002A40AA427DD1674ED1F804C0ACEB06084C
:10092000B44532D014DCBCF1030F3AD009DCBCF181
:10093000000F2AD0BCF1010F1CD0BCF1020F31D145
:100940001DE0BCF1110F17D0BCF1120F2AD119E034
:10095000B8F5881F19D006DCB8F5803F15D0B8F57A
:10096000801F1FD111E0B8F5001F0ED0B8F5041F8D
:1009700018D10AE0CB6815E0CB681B1D12E0CB68EC
:1009800008330FE0CB680C330CE08B682BB1012BE4
:100990004FF0080303D0456104E0042302E0056141
:1009A00000E00023FF2A01D8064601E000F104061A
:1009B0004FEA840501D9A5F12005D6F8008007FA91
:1009C00005FC28EA0C0803FA05F548EA0508C6F80C
:1009D00000804D68ED0062D5374DAE6946F00106E6
:1009E000AE61AD6924F0030605F001050095334DB5
:1009F00006EB050CDCF80850A607360F07FA06F8D8
:100A000025EA0805DFF8B880404503D14FF000081B
:100A100017E044E0DFF8AC80404502D14FF0010818
:100A20000FE0DFF8A480404502D14FF0020808E053
:100A3000DFF89880404502D14FF0030801E04FF005
:100A4000040808FA06F848EA0508CCF808804D685A
:100A5000D9F80060ED024D4601D5164300E09643FB
:100A60002E604D68DAF80060AD02554601D5164398
:100A700000E096432E604D68DBF80060AD035D46F4
:100A800001D5164300E096432E604D68DEF8006005
:100A9000ED03754601D5164300E096432E60641CB5
:100AA0000D682A46E5407FF431AFBDE8F88F0000BD
:100AB0000804014000001110001002400000014035
:100AC00000080140000C01400010014000140140EA
:100AD00001488068704700001800002002488168C3
:100AE000027811448160704718000020074810B553
:100AF000016841F010010160032000F075F80F203B
:100B000000F006F800F024F8002010BD002002409C
:100B100070B50D4D04464FF47A712878B1FBF0F0B2
:100B20000A490968B1FBF0F000F0DCFA48B9102C72
:100B300007D200222146501E00F036F800206C60DB
:100B400070BD012070BD00001800002024000020AE
:100B50000C4808B5816941F001018161816901F0AA
:100B600001010091C16941F08051C161C06900F08B
:100B7000805000900448416821F0E06141F000712C
:100B8000416008BD0010024000000140002809DB60
:100B900000F01F02012191404009800000F1E02097
:100BA000C0F8001170470000F0B40E4B1B680C46F3
:100BB000C3F30223C3F10705042D00D90425191D31
:100BC000072901D2002300E0DB1E012606FA05F109
:100BD000491E214099409E40761E16403143F0BC8C
:100BE00000F09DBC0CED00E0064900F0070208682B
:100BF0004FF6FF03184040EA0220034A1043086002
:100C0000704700000CED00E00000FA052DE9F04708
:100C10000F46050061D0434E306800F00700B8422F
:100C200009D2306820F0070038433060306800F0A7
:100C30000700B84251D128683B4C810712D54007C4
:100C400003D5606840F4E06060602878000703D551
:100C5000606840F4605060606068A96820F0F0004F
:100C6000084360602878C00728D06868012810D041
:100C70002168022810D0890700292EDA616821F046
:100C8000030101436160FFF723FF804641F2883989
:100C90000DE021688903EFE78901EDE7FFF718FF11
:100CA000A0EB0801494502D90320BDE8F087606840
:100CB000696800F00C00B0EB810FEFD1306800F0F4
:100CC0000700B8420BD9306820F007003843306085
:100CD000306800F00700B84201D00120E5E728782D
:100CE000400705D56068E96820F4E060084360606B
:100CF0002878000706D56068296920F4605040EA2A
:100D0000C100606000F038F86168084AC1F303115F
:100D1000515CC8400649086006480068FFF7F8FEC5
:100D20000020C2E70020024000100240D816000850
:100D3000240000201C000020044805490068496880
:100D4000044AC1F30221515CC840704724000020CE
:100D500000100240E8160008044805490068496888
:100D6000044AC1F3C221515CC840704724000020EE
:100D700000100240E81600080E4A51680E4801F0C3
:100D80000C03042B11D0082B0FD10C48C1F3834363
:100D9000C903C05C0AD55168084AC1F34041921E9C
:100DA000515C054A5043B0FBF1F070470449484399
:100DB000704700000010024000127A00C8160008B8
:100DC00000093D002DE9F84F040070D02078C04D97
:100DD000C00749D06868C0F38100012807D068685F
:100DE000C0F38100022809D16868C00306D52868CD
:100DF000800339D560680028E7D035E06068B0F539
:100E0000803F0BD010B1B0F5A02F11D0286820F48E
:100E100080302860286820F4802002E0286840F4B0
:100E200080302860606890B1FFF752FE06460AE005
:100E3000286840F480202860F0E700BFFFF748FEF4
:100E4000801B642873D828688003F7D50CE0FFF76F
:100E50003FFE064605E000BFFFF73AFE801B642810
:100E6000F0D828688003F7D420789A4E80074FF096
:100E700001094FF0000839D5686810F00C0F07D051
:100E80006868C0F38100022809D16868C00306D4ED
:100E90002868800714D52069012808D110E020694E
:100EA000B0B1C6F80090FFF713FE074605E00AE16F
:100EB000FFF70EFEC01B0228C4D828688007F7D5AC
:100EC0002868616920F0F80040EAC10028600DE060
:100ED000C6F80080FFF7FCFD074604E0FFF7F8FDC9
:100EE000C01B022823D828688007F7D42078000781
:100EF0002CD57948A169D9B1C0F80090FFF7E8FD79
:100F0000074604E0FFF7E4FDC01B02280FD8686A1B
:100F10008007F7D571484FF4FA510068B0FBF1F043
:100F2000009000BF0098411E0091FAD20EE080E0D0
:100F3000C0F80080FFF7CCFD074604E0FFF7C8FDCE
:100F4000C01B022875D8686A8007F7D4207840074C
:100F500060D5E8690027C00008D4E86940F08050F7
:100F6000E861E869012700F0805000905C48016862
:100F7000C90513D40168834641F480710160FFF70D
:100F8000A7FD824606E000BFFFF7A2FDA0EB0A0026
:100F900064284ED8DBF80000C005F5D5E0680128CC
:100FA0000AD008B1052813D0286A20F00100286271
:100FB000286A20F0040002E0286A40F0010028625C
:100FC000E06841F2883B98B1FFF782FD82460BE072
:100FD000286A40F004002862EEE700BFFFF778FDC2
:100FE000A0EB0A0159455AD8286A8007F6D50CE0CB
:100FF000FFF76EFD824605E0FFF76AFDA0EB0A01F0
:1010000059454CD8286A8007F6D41FB1E86920F00A
:101010008050E861E06988B36968C1F38101022901
:1010200044D00228C6F8608004D0FFF751FD044682
:1010300038E034E0FFF74CFD074604E0FFF748FDD9
:10104000C01B02282BD828688001F7D4206AB0F58D
:10105000803F05D16868A16820F4003008436860CB
:10106000D4E908010843696821F4741108436860F1
:10107000C6F86090FFF72CFD044606E025E000BFAF
:10108000FFF726FD001B022809D828688001F7D544
:101090001BE000BFFFF71CFD001B022802D9032044
:1010A000BDE8F88F28688001F4D40EE00128F7D05D
:1010B0006868226A00F48031914204D1616A00F4C8
:1010C0007010884201D00120EAE70020E8E7000024
:1010D00000100240000042428004424224000020EE
:1010E0000070004010B5401EB0F1807F01D3012098
:1010F00010BD4FF0E02460610F21601700F00FFA7F
:101100000020A06107202061002010BD70B5040000
:1011100004D094F84100002510B106E0012070BD14
:1011200084F84050204600F023F8242084F8410041
:101130002068C16821F40051C160204600F050F9D8
:101140002068016921F4904101612068416921F022
:101150002A0141612068C16841F40051C1606564A1
:10116000202084F8410084F842006563002070BDAF
:1011700030B585B000240094019402940394006873
:101180001449884224D11448816941F48041816125
:10119000816901F480410491816941F00401816118
:1011A00080690E4D00F0040004904FF40070009030
:1011B000022001900320039069462846FFF798FB20
:1011C0002815CDE90004694628460294FFF790FBF4
:1011D00005B030BD00380140001002400008014059
:1011E0002DE9F843044690F841001F4616460D4687
:1011F000202802D00220BDE8F8837DB176B100201E
:101200006064212084F84100FFF762FCA6848046D8
:10121000E684A068B0F5805F02D003E00120EAE731
:10122000206910B12E4600250EE000260CE080213A
:10123000204600F031F9A0B9AEB116F8010B2168D3
:101240004860E08C401EE084E08C43464FF0000292
:1012500000970028EBD14FF04001204600F01CF928
:1012600030B10320C7E735F8020BC0F30800E6E70A
:10127000202084F841000020BDE7FEE770B5184C3F
:101280000D46034620601749002005228860C1E909
:10129000030201F1340201215061C2E9060110602C
:1012A00050609060D0601162064610611146184689
:1012B000FFF702F888B92068FFF7D4FA00B10126D9
:1012C0002DB110212068FEF7E4FF304670BD0221E9
:1012D0002068FEF7DEFF0028F7D00126F5E70000C2
:1012E000000000209800002070B5104B0446A3F1C8
:1012F0000D050F4A00212868FFF756F80C48022117
:10130000008820800948B0F8030044BA2868FEF736
:10131000C0FF4FF4B47104FB01F000F051F9BDE8D7
:1013200070406FF00E0100F090B900000D00002039
:10133000B00000200E4810B50C4901600221416048
:1013400000214FF420228160C0E90312D2004261E3
:10135000017641768176C176012202774177FFF7E7
:101360009BF9002801D072B6FEE710BD0064004072
:1013700028000020FEE7FEE770477047FFF7AEBB8E
:1013800030B58FB028216846FEF71EFF14210AA849
:10139000FEF71AFF01210804CDE900100024029491
:1013A00002250491CDE907504FF4E01009906846FA
:1013B000FFF708FD08B172B6FEE70F20CDE90A0578
:1013C0004FF48060CDE90C4002210AA80E94FFF78B
:1013D0001DFC002801D072B6FEE70FB030BD70478B
:1013E00070B5044600680169E26821F44051114378
:1013F00001612169A0680843616908432168CA68DE
:1014000041F20C639A430243CA6020684169A269B1
:1014100021F44071114341611E492068884202D184
:10142000FFF79AFC01E0FFF787FC00EBC00101EB3E
:101430000012606864218000B2FBF0F3B3FBF1F3AB
:101440006FF018067343B2FBF0F5B2FBF0F605EB54
:101450008305322303EB0515B5FBF1F5B6FBF1F679
:1014600005F0F00505EB0615B2FBF0F6B2FBF0F067
:10147000B0FBF1F06FF01802504306EB800003EB75
:101480000010B0FBF1F0216800F00F0028448860E4
:1014900070BD0000003801402DE9F0419846174624
:1014A0000E460446069D27E0681C25D02DB1FFF7A7
:1014B0000FFBA0EB0800A8421ED920680C3050E8B2
:1014C000001F21F4D07140E80012002AF5D12068F5
:1014D000143050E8001F21F0010140E80012002AFA
:1014E000F5D1202084F8410084F84200002084F8DF
:1014F00040000320BDE8F0812068006836EA000063
:1015000004D00020B842CFD00020F3E70120F9E753
:101510000148FEF7C3BF000028000020FEE70907CE
:10152000090E002804DB00F1E02080F80014704769
:1015300000F00F0000F1E02080F8141D704700005B
:1015400008B5FFF7D3FAFFF71BFF1748816941F091
:1015500020018161816901F020010091816941F0E0
:1015600004018161806900F004000090FFF7E2FE51
:101570000F480E490C2201604FF4E1314160002117
:101580008160C160C0E904128161C161FFF7BEFDE5
:1015900008B172B6FEE7064800212838FFF76EFE54
:1015A0006420FFF793F9FBE7001002400038014088
:1015B00050000020014800F016B800BF0000C07FB6
:1015C000B0FA80F310FA03F2C3F19D030AD0D905F3
:1015D00001EB1220530638BF704700F1010008BF2D
:1015E00020F0010070470CF00F03092B08BF082002
:1015F00000F051800A2B0BD0082B18BF704708BF92
:101600001CF0400F0AD04FF000004FF0000170476F
:101610001CF0400F18BF4FF0004070471CF0100F37
:1016200008D020F0704300F07F4242EAD3014FEA35
:101630004370704700F0604021F07F4242EA0002B0
:1016400001F07F4040EA727070474FF0FF0212EAEB
:10165000D0521CBF92F0FF038B42C2BFD14200EBBD
:10166000C1507047002A0AD0002B0BD0002900F08F
:101670000040A4BF40F0FE4040F40000704700F07E
:101680000040704743024FF00B0C18BF4CF0806CC9
:101690007FF490AF70471CF4801F11D01CF4E02F32
:1016A00003D06FEACC31490070474FF04050EFF360
:1016B000008222F0704242EA000282F30088704702
:1016C0004FF00000704701020203040506070809F5
:1016D0000A0B0C0D0E0F101000000000000000009F
:1016E00001020304060708090000000001020304C8
:1016F0001017000800000020280000002801000842
:1017000038170008280000203007000044010008B6
:101710000000000000000000FFAA00000000000020
:1017200000000000000000000100000010000000A8
:08173000000000000024F40099
:04000005080000ED02
:00000001FF
